:08000000BA1404000000000026
:100400003220EF00C3202000008041001040BA00DD
:100410000160EF0000000600434F00004E4E000058
:100420004543000054200000434F00004D500000A1
:100430005554000045520000000000003220EF003B
:10044000A3222000008041001040BA000160EF00AC
:10045000000006002E2E00002E2E00002E2E000082
:100460002E2E00002E2E00002E2E00002E2E00001C
:100470002E2E0000000000003220EF008324200018
:10048000008041001040BA000160EF00000006004B
:100490002D4C00004F430000414C00002043000061
:1004A0004F4E0000545200004F4C0000202D000021
:1004B000000000003220EF00632620000080410091
:1004C0001040BA000160EF00000006005345000034
:1004D000545500005020000050530000204F0000F1
:1004E0004E2F00004F460000463A0000000000007A
:1004F0003220EF0043282000008041001040BA0065
:100500000160EF0000000600504F0000574500005A
:10051000523A0000204F0000464600002020000014
:10052000202000002020000020200000000000000B
:100530003220EF00432A2000008041001040BA0022
:100540000160EF0000000600504F0000574500001A
:10055000523A0000204F00004E20000020200000F2
:1005600020200000202000002020000000000000CB
:100570003220EF00432C2000008041001040BA00E0
:100580000160EF0000000600414D000045540000EE
:100590004552000020490000313A000020250000AB
:1005A000642E000025640000256400004100000066
:1005B0003220EF00432E2000008041001040BA009E
:1005C0000160EF0000000600414D000045540000AE
:1005D0004552000020490000313A00002D2500005E
:1005E000642E000025640000256400004100000026
:1005F0003220EF0043302000008041001040BA005C
:100600000160EF0000000600414D0000455400006D
:100610004552000020490000323A00002025000029
:10062000642E0000256400002564000041000000E5
:100630003220EF0043322000008041001040BA0019
:100640000160EF0000000600414D0000455400002D
:100650004552000020490000323A00002D250000DC
:10066000642E0000256400002564000041000000A5
:100670000000E0004220AF00040037000B27090013
:10068000000000000000E900FCFF3A000000060046
:10069000851F78008EC8BF000160EF006100600018
:1006A0000000E00002003A00CB02A9000100370080
:1006B000CB02A800C702A900754480000B60EF00C0
:1006C0000B60EF00C12ADE00618062000000E000E4
:1006D00002003A00CB22A90001003700CB22A8007B
:1006E000C722A900754480000B60EF000B60EF008B
:1006F000C22ADE00618062000000E00002003A00D1
:10070000CB42A90001003700CB42A800C742A90094
:10071000754480000B60EF000B60EF00C32ADE0021
:10072000618062000000E00002003A00CB62A90094
:1007300001003700CB62A800C762A900CF02780091
:1007400000000600C6E2A900CAE2A800C60009002F
:1007500000000000C6E2A900CAE2A900C600090024
:100760000000000000000600851F7800554480004E
:100770000B60EF000B60EF00C42ADE008E08F8006B
:10078000E5FF9F008E08F90048030200000000000A
:10079000A2030200000000008AC8BF008EE8B70074
:1007A0004803020000000000A20302000000000055
:1007B000CF02780000000600C6A2A900CAA2A900C4
:1007C000C6C2A900CAC2A900C6E2A900CAE2A9001D
:1007D00030C0B3008EE8B7004803020000000000FC
:1007E000A203020000000000A203020000000000BB
:1007F000A20302000000000020C0B3008EE8B70092
:100800004803020000000000A203020000000000F4
:1008100080C2B3008AE8B700B40302000000000001
:1008200060C0B3008AE8B700B40302000000000013
:10083000C0C0B3008AE8B700B403020000000000A3
:1008400010C0B3008AE8B700B40302000000000043
:1008500080C0B3008AE8B700B403020000000000C3
:1008600000000600C0A2EF00C4002000341688007B
:10087000F401290064168800F4032000C4168800DF
:1008800004F02F00F4168800D2A2EF00F4CF2F005E
:1008900024178800C022EF00C422EF0020032000AC
:1008A0003803020000000000DC030200000000002A
:1008B00020032000380302000000000074802000A4
:1008C00024198800044E2800041988002CA3EF0086
:1008D00034FF2F00541988002223EF000000060087
:1008E000851F7800861F7800871F7800881F780092
:1008F000C142A800C342AF000B003700C122A800CC
:10090000C322AF0008003700C1C2A800C3C2AF00B5
:1009100005003700C1E2A800C3E2AF0002003700C3
:1009200080CCB30004E8B700C142A800C342AE00C7
:100930000B003700C122A800C322AF000800370017
:10094000C1C2A800C3C2AF0005003700C1E2A800C1
:10095000C3E2AF000200370080CCB30005E8B70067
:10096000C142A800C342AF000B003700C122A8005B
:10097000C322AE0008003700C1C2A800C3C2AF0046
:1009800005003700C1E2A800C3E2AF000200370053
:1009900080CCB30006E8B700244080006A24E10060
:1009A00009003900244080004822DE006A24E1006A
:1009B00005003900344080006A24E100020039005B
:1009C00010C0B30007E8B7000448E200010032009D
:1009D0000468ED000548E200010032000568ED0002
:1009E0000648E200010032000668ED000448E2001B
:1009F000040032000548E200020032000648E2002E
:100A000001003A000768EF0007C8BF004F047800F4
:100A1000CF0378004F037800CF0278000000060073
:100A2000851F7800C500200003000900B51F78006D
:100A3000F44380006124E10004013A00C062A80090
:100A4000C262AE000D003700C082A800C282AE00B4
:100A50000A003700C0A2A800C2A2AE0007003700FB
:100A6000C0C2A800C2C2AF0004003700C0E2A800A4
:100A7000C2E2AF00010037000008A900C062A80070
:100A8000C262AE000D003700C082A800C282AE0074
:100A90000A003700C0A2A800C2A2AE0007003700BB
:100AA000C0C2A800C2C2AF0004003700C0E2A80064
:100AB000C2E2AE00010037000008A800C062A80032
:100AC000C262AF000D003700C082A800C282AE0033
:100AD0000A003700C0A2A800C2A2AE00070037007B
:100AE000C0C2A800C2C2AF0004003700C0E2A80024
:100AF000C2E2AF00010037000028A900C062A800D0
:100B0000C262AF000D003700C082A800C282AE00F2
:100B10000A003700C0A2A800C2A2AE00070037003A
:100B2000C0C2A800C2C2AF0004003700C0E2A800E3
:100B3000C2E2AE00010037000028A800C062A80091
:100B4000C262AE000D003700C082A800C282AF00B2
:100B50000A003700C0A2A800C2A2AE0007003700FA
:100B6000C0C2A800C2C2AF0004003700C0E2A800A3
:100B7000C2E2AF00010037000048A900C062A8002F
:100B8000C262AE000D003700C082A800C282AF0072
:100B90000A003700C0A2A800C2A2AE0007003700BA
:100BA000C0C2A800C2C2AF0004003700C0E2A80063
:100BB000C2E2AE00010037000048A800C062A800F1
:100BC000C262AF000D003700C082A800C282AF0031
:100BD0000A003700C0A2A800C2A2AE00070037007A
:100BE000C0C2A800C2C2AF0004003700C0E2A80023
:100BF000C2E2AF00010037000068A900C062A8008F
:100C0000C262AF000D003700C082A800C282AF00F0
:100C10000A003700C0A2A800C2A2AE000700370039
:100C2000C0C2A800C2C2AF0004003700C0E2A800E2
:100C3000C2E2AE00010037000068A800C062A80050
:100C4000C262AE000D003700C082A800C282AE00B2
:100C50000A003700C0A2A800C2A2AF0007003700F8
:100C6000C0C2A800C2C2AF0004003700C0E2A800A2
:100C7000C2E2AF00010037000088A900C062A800EE
:100C8000C262AE000D003700C082A800C282AE0072
:100C90000A003700C0A2A800C2A2AF0007003700B8
:100CA000C0C2A800C2C2AF0004003700C0E2A80062
:100CB000C2E2AE00010037000088A800C062A800B0
:100CC000C262AF000D003700C082A800C282AE0031
:100CD0000A003700C0A2A800C2A2AF000700370078
:100CE000C0C2A800C2C2AF0004003700C0E2A80022
:100CF000C2E2AF000100370000A8A900C062A8004E
:100D0000C262AF000D003700C082A800C282AE00F0
:100D10000A003700C0A2A800C2A2AF000700370037
:100D2000C0C2A800C2C2AF0004003700C0E2A800E1
:100D3000C2E2AE000100370000A8A800C062A8000F
:100D4000C262AE000D003700C082A800C282AF00B0
:100D50000A003700C0A2A800C2A2AF0007003700F7
:100D6000C0C2A800C2C2AF0004003700C0E2A800A1
:100D7000C2E2AF000100370000C8A900C062A800AD
:100D8000C262AE000D003700C082A800C282AF0070
:100D90000A003700C0A2A800C2A2AF0007003700B7
:100DA000C0C2A800C2C2AF0004003700C0E2A80061
:100DB000C2E2AE000100370000C8A800C062A8006F
:100DC000C262AF000D003700C082A800C282AF002F
:100DD0000A003700C0A2A800C2A2AF000700370077
:100DE000C0C2A800C2C2AF0004003700C0E2A80021
:100DF000C2E2AF000100370000E8A900C062A8000D
:100E0000C262AF000D003700C082A800C282AF00EE
:100E10000A003700C0A2A800C2A2AF000700370036
:100E2000C0C2A800C2C2AF0004003700C0E2A800E0
:100E3000C2E2AE000100370000E8A80005408000D3
:100E40000510B300DE22EF00151788007E48E2008F
:100E500003003A00DE22EF00F40F20001417880090
:100E60002501200003000900CF127800CF0278008E
:100E700000000600851F7800861F7800871F780015
:100E8000881F7800C142A800C342AF001400370099
:100E9000C122A800C322AF0011003700C1C2A800C0
:100EA000C3C2AF000E003700C1E2A800C3E2AF002A
:100EB0000B003700D242A800D442AF000200370036
:100EC000CA22A90001003700CA22A800C622A90030
:100ED0001E0E090000000000FF3F09000000000096
:100EE000C142A800C342AE0014003700C122A800CE
:100EF000C322AF0011003700C1C2A800C3C2AF00B7
:100F00000E003700C1E2A800C3E2AF000B003700BB
:100F1000D262A800D462AF0002003700CA22A90042
:100F200001003700CA22A800C622A9001E0E09002F
:100F300000000000FF3F090000000000C142A800BF
:100F4000C342AF0014003700C122A800C322AE0084
:100F500011003700C1C2A800C3C2AF000E003700A5
:100F6000C1E2A800C3E2AF000B003700D282A800A4
:100F7000D482AF0002003700CA22A9000100370066
:100F8000CA22A800C622A9001E0E09000000000007
:100F9000FF3F090000000000C142A800C342AE00AC
:100FA00014003700C122A800C322AE001100370090
:100FB000C1C2A800C3C2AF000E003700C1E2A80042
:100FC000C3E2AF000B003700D2A2A800D4A2AF004A
:100FD00002003700CA22A90001003700CA22A80077
:100FE000C622A9001E0E090000000000FF3F0900F4
:100FF00000000000C142A800C342AF001400370047
:10100000C122A800C322AF0011003700C1C2A8004E
:10101000C3C2AE000E003700C1E2A800C3E2AF00B9
:101020000B003700D2C2A800D4C2AF0002003700C4
:10103000CA22A90001003700CA22A800C622A900BE
:101040001E0E090000000000FF3F09000000000024
:10105000C142A800C342AE0014003700C122A8005C
:10106000C322AF0011003700C1C2A800C3C2AE0046
:101070000E003700C1E2A800C3E2AF000B0037004A
:10108000D2E2A800D4E2AF0002003700CA22A900D1
:1010900001003700CA22A800C622A9001E0E0900BE
:1010A00000000000FF3F090000000000C142A8004E
:1010B000C342AF0014003700C122A800C322AE0013
:1010C00011003700C1C2A800C3C2AE000E00370035
:1010D000C1E2A800C3E2AF000B003700D302A800B2
:1010E000D502AF0002003700CA22A9000100370074
:1010F000CA22A800C622A9001E0E09000000000096
:10110000FF3F090000000000C142A800C342AE003A
:1011100014003700C122A800C322AE00110037001E
:10112000C1C2A800C3C2AE000E003700C1E2A800D1
:10113000C3E2AF000B003700D322A800D522AF00D6
:1011400002003700CA22A90001003700CA22A80005
:10115000C622A9001E0E090000000000FF3F090082
:1011600000000000C142A800C342AF0016003700D3
:10117000C122A800C322AF0013003700C1C2A800DB
:10118000C3C2AF0010003700C1E2A800C3E2AE0046
:101190000D00370002C8BF000160EF006100600071
:1011A0000000E00002003A00CA22A9000100370056
:1011B000CA22A800C622A9001E0E090000000000D5
:1011C000FF3F090000000000C142A800C342AE007A
:1011D00018003700C122A800C322AF001500370055
:1011E000C1C2A800C3C2AF0012003700C1E2A8000C
:1011F000C3E2AE000F003700154080000B60EF0027
:101200000B60EF00C12ADE00618062000000E00098
:1012100002003A00CA22A90001003700CA22A80031
:10122000C622A9001E0E090000000000FF3F0900B1
:1012300000000000C142A800C342AF001800370000
:10124000C122A800C322AE0015003700C1C2A80009
:10125000C3C2AF0012003700C1E2A800C3E2AE0073
:101260000F003700154080000B60EF000B60EF00AF
:10127000C22ADE00618062000000E00002003A0045
:10128000CA22A90001003700CA22A800C622A9006C
:101290001E0E090000000000FF3F090000000000D2
:1012A000C142A800C342AE0018003700C122A80006
:1012B000C322AE0015003700C1C2A800C3C2AF00F0
:1012C00012003700C1E2A800C3E2AE000F003700F1
:1012D000154080000B60EF000B60EF00C32ADE00BA
:1012E000618062000000E00002003A00CA22A9000A
:1012F00001003700CA22A800C622A9001E0E09005C
:1013000000000000FF3F090000000000C142A800EB
:10131000C342AF0016003700C122A800C322AF00AD
:1013200013003700C1C2A800C3C2AE0010003700CE
:10133000C1E2A800C3E2AE000D00370003C8BF0041
:101340000160EF00610060000000E00002003A0070
:10135000CA22A90001003700CA22A800C622A9009B
:101360001E0E090000000000FF3F09000000000001
:10137000C142A800C342AE0018003700C122A80035
:10138000C322AF0015003700C1C2A800C3C2AE001F
:1013900012003700C1E2A800C3E2AE000F00370020
:1013A00015408000C82ADE000B60EF00C12ADE0075
:1013B000618062000000E00002003A00CA22A90039
:1013C00001003700CA22A800C622A9001E0E09008B
:1013D00000000000FF3F090000000000C142A8001B
:1013E000C342AF0018003700C122A800C322AE00DC
:1013F00015003700C1C2A800C3C2AE0012003700FA
:10140000C1E2A800C3E2AE000F0037001540800023
:10141000C82ADE000B60EF00C22ADE006180620095
:101420000000E00002003A00CA22A90001003700D3
:10143000CA22A800C622A9001E0E09000000000052
:10144000FF3F090000000000C142A800C342AE00F7
:1014500018003700C122A800C322AE0015003700D3
:10146000C1C2A800C3C2AE0012003700C1E2A8008A
:10147000C3E2AE000F00370015408000C82ADE002E
:101480000B60EF00C32ADE00618062000000E00014
:1014900002003A00CA22A90001003700CA22A800AF
:1014A000C622A9001E0E090000000000FF3F09002F
:1014B000000000004F047800CF0378004F0378004D
:1014C000CF02780000000600851F7800C5002000CC
:1014D00003000900B51F78007E48E2001C003A00B6
:1014E000D202A800D402AE0002003700E922A9000F
:1014F00001003700E922A800E522A900D202A800D5
:10150000D402AF0002003700E902A9000100370051
:10151000E902A800E502A900D222A800D422AE0068
:1015200002003700D1A2A90001003700D1A2A80013
:10153000CDA2A900D222A800D422AF000200370019
:10154000D1C2A90001003700D1C2A800CDC2A900B4
:10155000F44380006124E1004C003A00C062A8001E
:10156000C262AF0010003700C082A800C282AF0084
:101570000D003700C0A2A800C2A2AF000A003700C9
:10158000C0C2A800C2C2AE0007003700C0E2A80077
:10159000C2E2AE0004003700E522A900E922A8005B
:1015A000E502A900E902A900C062A800C262AF007A
:1015B00010003700C082A800C282AF000D003700C3
:1015C000C0A2A800C2A2AF000A003700C0C2A80093
:1015D000C2C2AE0007003700C0E2A800C2E2AF00FE
:1015E00004003700E522A900E922A900E502A900CC
:1015F000E902A800C062A800C262AE001000370075
:10160000C082A800C282AF000D003700C0A2A800AF
:10161000C2A2AF000A003700C0C2A800C2C2AE001A
:1016200007003700C0E2A800C2E2AE0004003700A5
:10163000CDA2A900D1A2A800CDC2A900D1C2A90003
:10164000C062A800C262AE0010003700C082A800CD
:10165000C282AF000D003700C0A2A800C2A2AF0036
:101660000A003700C0C2A800C2C2AE00070037009F
:10167000C0E2A800C2E2AF0004003700CDA2A9007A
:10168000D1A2A900CDC2A900D1C2A8002501200085
:1016900003000900CF127800CF0278000000060096
:1016A000851F7800C500200003000900B51F7800E1
:1016B0007E48E20027003A000D68EF0044408000B9
:1016C0006124E10004003A00D8C2A900DCC2A800ED
:1016D000700B040000000000D8C2A900DCC2A90001
:1016E000444080004822DE006124E10004003A000A
:1016F000D8E2A900DCE2A800840B0400000000008E
:10170000D8E2A900DCE2A900544080006124E10095
:1017100004003A00D902A900DD02A800960B0400DB
:1017200000000000D902A900DD02A9005440800099
:101730004822DE006124E10004003A00D922A90019
:10174000DD22A800AA0B040000000000D922A90095
:10175000DD22A900F44380006124E10094003A00F6
:101760000D48E2000A003A00D8C2A900DCC2A90074
:10177000D8E2A900DCE2A900D902A900DD02A90093
:10178000D922A900DD22A90010C0B3000DE8B700DE
:10179000C062A800C262AF000E003700C082A8007D
:1017A000C282AE000B003700C0A2A800C2A2AF00E8
:1017B00008003700C0C2A800C2C2AE000500370052
:1017C000C0E2A800C2E2AE0002003700D8C2A90001
:1017D000DCC2A800C062A800C262AF000E003700E1
:1017E000C082A800C282AE000B003700C0A2A800D1
:1017F000C2A2AF0008003700C0C2A800C2C2AE003B
:1018000005003700C0E2A800C2E2AF0002003700C6
:10181000D8C2A900DCC2A900C062A800C262AE00A2
:101820000E003700C082A800C282AE000B00370055
:10183000C0A2A800C2A2AF0008003700C0C2A80022
:10184000C2C2AE0005003700C0E2A800C2E2AE008E
:1018500002003700D8E2A900DCE2A800C062A800BC
:10186000C262AE000E003700C082A800C282AE0085
:101870000B003700C0A2A800C2A2AF0008003700CA
:10188000C0C2A800C2C2AE0005003700C0E2A80076
:10189000C2E2AF0002003700D8E2A900DCE2A900F2
:1018A000C062A800C262AF000E003700C082A8006C
:1018B000C282AF000B003700C0A2A800C2A2AE00D7
:1018C00008003700C0C2A800C2C2AE000500370041
:1018D000C0E2A800C2E2AE0002003700D902A900AF
:1018E000DD02A800C062A800C262AF000E0037008F
:1018F000C082A800C282AF000B003700C0A2A800BF
:10190000C2A2AE0008003700C0C2A800C2C2AE002A
:1019100005003700C0E2A800C2E2AF0002003700B5
:10192000D902A900DD02A900C062A800C262AE000F
:101930000E003700C082A800C282AF000B00370043
:10194000C0A2A800C2A2AE0008003700C0C2A80012
:10195000C2C2AE0005003700C0E2A800C2E2AE007D
:1019600002003700D922A900DD22A800C062A80029
:10197000C262AE000E003700C082A800C282AF0073
:101980000B003700C0A2A800C2A2AE0008003700BA
:10199000C0C2A800C2C2AE0005003700C0E2A80065
:1019A000C2E2AF0002003700D922A900DD22A9005F
:1019B0002501200003000900CF127800CF02780033
:1019C000000006007F48E20003003A000008200003
:1019D0007E48B40080E8B700F44380004822DE006F
:1019E0006124E10003003A00000C20007E48B400AE
:1019F00080E8B700F44380004822DE006224E10062
:101A000003003A00400920007E48B40080E8B70097
:101A1000F44380004822DE006324E10003003A0022
:101A2000400D20007E48B40080E8B7002E35090044
:101A300000000000FF3F09000000000080C8BF0058
:101A40008AE8B700B4030200000000000E27090076
:101A50000000000000000600C6A2A900CAA2A8005B
:101A600086C8BF008AE8B700B40302000000000087
:101A7000C6A2A900CAA2A90000000600851F78001E
:101A8000C500200003000900B51F780009002000F0
:101A90004300AF0019002000891F78000002EB000E
:101AA0008002EB000003EB008003EB0003046900FD
:101AB00011003200080220004200A9000080D2007C
:101AC0008180D2000482D2008582D2000328E10006
:101AD00001003A0002A0E1000300390002025200B6
:101AE00083825A004200A8000683D2008783D20076
:101AF0000804E900F0FF3A0087007800060078004B
:101B0000CF0478000900E000010032000400BE00AC
:101B10002501200003000900CF127800CF027800D1
:101B200000000600851F7800861F78008A28EF00D5
:101B30008A88BF00044480000020E10019003600BC
:101B40007EC8BF0028E3B7002963EF0062000900E8
:101B5000000000002003A9002023A8002003AE00FD
:101B6000FEFF37000003F8008208F9007EC8BF00BE
:101B70000160EF004200DD00A481200084024000EB
:101B8000150078008208B400800A780055027800B9
:101B900060024A00840A78008A28EC00980D04004C
:101BA000000000007EC8BF000160EF004200DD00C1
:101BB000A481200004004000A4002000301A780016
:101BC000301A78004300A9000500780086007800EC
:101BD00002448000030020003E0D020000000000CF
:101BE00086A8B700414488007EC8BF000160EF00AE
:101BF0004200DD00A481200084024000804AEB0006
:101C000000C0B3009042980000C0B300A04298000A
:101C100000C0B300B04298008608F8008408F900BC
:101C20008408F8000000F9004F037800CF02780024
:101C300000000600851F7800C50020000300090091
:101C4000B51F780000027800810278000203780056
:101C5000830378000000EB008000EB000001EB0044
:101C60008001EB000800A10007F0A6000500370086
:101C70000800A0000402EA008582EA000683EA0068
:101C80008783EA008504720002003A00870473002B
:101C900015003200394720000340A7000B00370031
:101CA0004200A9000482D2008582D2000683D200BD
:101CB0008783D2000080D2008180D2000281D200CE
:101CC0008381D2008904E900F3FF3A00C44CDD00AF
:101CD0004200A90009F0A1000340A10083816C002B
:101CE0000800A70003F0A000250120000300090060
:101CF000CF127800CF02780000000600881F78001D
:101D00002801200004000900B81F780087866900B8
:101D10000304780087047800FA7F20004200A900BD
:101D20004220A90044C4DE00080465000800E00069
:101D30006C0032004200A9004220A900C4CCDE00A1
:101D4000890465000900E000660032000005EB0030
:101D50000906540003003900FC3FB0006100310067
:101D6000040037001B4020000B0656005D003900C0
:101D70005C0032000004EB008004EB000005EB0087
:101D80008005EB00F301B2000340A000F701B200B0
:101D90000740A0008C1F78006C0320000400500056
:101DA00085805800060159008781590002003300E0
:101DB0000600310006003A0004004000858048001B
:101DC0000601490087814900010037000800A00092
:101DD0000C06E9000B0032004200A9000080D2008E
:101DE0008180D2000281D2008381D2004200A9000A
:101DF0000884D2008984D2000A85D2008B85D20063
:101E0000E6FF37004F0678000B50A70001003700AF
:101E1000060037004200A9008B85D3000A85D30055
:101E20008984D3000884D300030037000C06E9003E
:101E30004200A9002B0032004200AF000900370029
:101E40000080D2008180D2000281D2008381D20042
:101E50000402500085825800060359008783590008
:101E6000150039000804E80013003A008904E8006E
:101E700011003A000A05E8000F003A008B05E8005F
:101E80000D003A000C06E800160032000A00370088
:101E90000C06E900130032000B40A70006003700D3
:101EA0004200A9000884D2008984D2000A85D200A9
:101EB0008B85D200F8FF37004466DD004200A900A0
:101EC0000CF0A1000DF0A7000CF0A0000B40A10049
:101ED0008B016E000A017800890078000800780004
:101EE0000500370000002000010020000200200053
:101EF0000300200000003700A801200004000900B2
:101F00004F1478004F04780000000600851F780009
:101F1000C500200005000900B51F78000304780003
:101F2000820378000103780080027800830478003F
:101F30003B472000C499DE00FA7F20008301650042
:101F400083855500F801B2000840A0000000EB00B6
:101F50008000EB000001EB008001EB004200A900D3
:101F60000884D3008783D3000683D3008582D300FF
:101F70008381D3000281D3008180D3000080D3000D
:101F80008B05E900F5FF3A0009F0A60005003700CF
:101F90000000EA008180EA000281EA008381EA0011
:101FA000000037006501200005000900CF1278000D
:101FB000CF02780000000600851F7800C5002000D1
:101FC00003000900B51F780000F0A6000C003700E0
:101FD0000000EA000480A00004F0A600080037001A
:101FE000801F7800D002200086A8B7002C0D0200C8
:101FF000000000004F0078000480A1000860ED00A0
:102000008002EB00800378008404780004F0A100D3
:102010000404E00006003A0009F0A70002003700BF
:10202000050020000F003700050020000D003700DC
:10203000E64252000A0039000003200009F0A60021
:102040000002200086A8B7002C0D0200000000004E
:102050008502E900FBFF3B0055002000010037002E
:1020600084027800640020000580A7000402E800D4
:1020700005E0A00009F0A70005F0A000087122000B
:10208000110009008883D8008810020000000000B9
:1020900081037800883E2000110009008883D80061
:1020A000881002000000000081037800480620002C
:1020B000110009008883D800881002000000000089
:1020C00081037800A8002000110009008883D8004F
:1020D00088100200000000000980A60005003700FB
:1020E000D002200086A8B7002C0D020000000000DE
:1020F0000980A1000003200000C0400050018800BA
:1021000086A8B7002C0D0200000000002200370056
:10211000060320000000E0000E003A0005E0A600E3
:10212000160037000402E9000524E1000200320035
:102130004200AF00000006000000E00005003A0089
:1021400005E0A6000D00370005F0A60006022000FD
:102150000A00370005E0A1000980A600070037004B
:1021600000057800D002200086A8B7002C0D0200E0
:10217000000000000980A1000A0078000040430030
:10218000811F780086A8B7002C0D02000000000017
:10219000CF007800000006002501200003000900A0
:1021A000CF127800CF02780000000600851F78006B
:1021B000861F7800871F780020C1B3007EE8B70033
:1021C000843E200004448800920D020000000000BC
:1021D00010A8B70030C1B3007EE8B700843E2000ED
:1021E00004448800920D02000000000012A8B7000D
:1021F00084408000037620000418E10015003E00B2
:10220000844080000376200083025200050078009D
:102210000100200002002000030020001A0E02002E
:1022200000000000851F7800C4D32B00256529001D
:1022300016E2280057FE23007E0E02000000000078
:10224000CF027800860F02000000000014A8B7003B
:102250000F68EF0084408000037620000418E1003E
:10226000160036000476200083408000830252006E
:10227000050078000100200002002000030020007B
:102280001A0E020000000000851F7800444C260052
:10229000A50A260046252500B7FE23007E0E020073
:1022A00000000000CF027800860F0200000000004E
:1022B00014A8B70010C0B3000FE8B7009440800026
:1022C000537520000418E10015003E009440800082
:1022D00053752000830252000500780001002000A1
:1022E00002002000030020001A0E0200000000007F
:1022F000851F780024082C00A51C2A0056642B009A
:1023000057FE23007E0E020000000000CF0278007E
:10231000860F02000000000016A8B7001868EF0042
:1023200094408000537520000418E1001600360028
:10233000547520009340800083025200050078000D
:102340000100200002002000030020001A0E0200FD
:1023500000000000851F780094D92D0035792800F1
:1023600056A82500B7FE23007E0E020000000000E4
:10237000CF027800860F02000000000016A8B70008
:1023800010C0B30018E8B7000F48E2003F003A0061
:102390007E68EF007F68EF00E20C020000000000A2
:1023A000A440800043062000110009000382D800E9
:1023B00080027800A440800043062000110009003C
:1023C0000382D8000103780006027800A3002000F1
:1023D000110009000382D80000037800A4408000A7
:1023E00043062000110009000382D8008103780011
:1023F00007027800A3002000110009000382D80022
:102400008103780001002000010078000160EF00E6
:10241000B8020200000000008100E800811F78007F
:1024200086A8B7002C0D020000000000CF00780045
:10243000A00020000008E600F3FF37000500780048
:1024400004002000DC0F020000000000E402200075
:10245000344488002C0D02000000000006007800C3
:1024600004002000DC0F02000000000007007800DC
:1024700004002000DC0F0200000000001404200013
:10248000344488002C0D02000000000074408000DD
:102490004822DE006124E1003F003A007E68EF0040
:1024A0007F68EF00E20C020000000000A440800002
:1024B00043062000110009000382D8008002780042
:1024C000A440800043062000110009000382D800C8
:1024D0000103780006027800A30020001100090023
:1024E0000382D80000037800A44080004306200047
:1024F000110009000382D8008103780007027800E8
:10250000A3002000110009000382D8008103780095
:1025100001002000010078000160EF00D8020200F5
:10252000000000008100E800811F780086A8B70045
:102530002C0D020000000000CF007800A000200059
:102540000008E600F3FF37000500780004002000D3
:10255000DC0F020000000000E40220003444880088
:102560002C0D02000000000006007800040020008E
:10257000DC0F0200000000000700780004002000CB
:10258000DC0F020000000000140420003444880026
:102590002C0D0200000000001848E20040003A0044
:1025A0007E68EF0010C0B3007FE8B700E20C0200C5
:1025B00000000000B4408000430620001100090024
:1025C0000382D80080027800B440800043062000D7
:1025D000110009000382D800010378000602780088
:1025E000A3002000110009000382D8000003780036
:1025F000B440800043062000110009000382D80087
:102600008103780007027800A30020001100090070
:102610000382D800810378000100200001007800C7
:102620000160EF00F8020200000000008100E800F5
:10263000811F780086A8B7002C0D02000000000062
:10264000CF007800A00020000008E600F3FF37006C
:102650000500780004002000DC0F020000000000EC
:10266000E4022000344488002C0D02000000000029
:102670000600780004002000DC0F020000000000CB
:102680000700780004002000DC0F020000000000BA
:1026900014042000344488002C0D020000000000C7
:1026A000C44080006124E10040003A007E68EF00F1
:1026B00010C0B3007FE8B700E20C02000000000089
:1026C000B440800043062000110009000382D800B6
:1026D00080027800B4408000430620001100090009
:1026E0000382D8000103780006027800A3002000CE
:1026F000110009000382D80000037800B440800074
:1027000043062000110009000382D80081037800ED
:1027100007027800A3002000110009000382D800FE
:102720008103780001002000010078000160EF00C3
:1027300018030200000000008100E800811F7800FB
:1027400086A8B7002C0D020000000000CF00780022
:10275000A00020000008E600F3FF37000500780025
:1027600004002000DC0F020000000000E402200052
:10277000344488002C0D02000000000006007800A0
:1027800004002000DC0F02000000000007007800B9
:1027900004002000DC0F02000000000014042000F0
:1027A000344488002C0D020000000000CF037800A4
:1027B0004F037800CF02780000000600851F7800E4
:1027C000E5C2A800E7C2AF00080037000E68EC00C1
:1027D000800C2000380302000000000074408000DC
:1027E0006224E100010036000E68EF000E48E200AE
:1027F0005A003200744080006124E10052003A0027
:10280000E5E2A800E7E2AF000A00370010C0B3001D
:102810000CE8B70010C0B30008E8B70010C0B30060
:1028200009E8B70010C0B3000AE8B70010C0B30051
:102830000BE8B700E582A800E782AF00050037008B
:102840000C68EF000868EF000968EF000A68EF0005
:102850000B68EF007E68EF007F68EF00E20C02007B
:102860000000000001002000010078000160EF007E
:102870005A020200000000008100E800811F780079
:1028800086A8B7002C0D020000000000CF007800E1
:10289000F00020000008E600F3FF37000C48E200DB
:1028A00013003A007E68EF0010C0B3007FE8B70065
:1028B000E20C02000000000001002000010078008E
:1028C0000160EF0078020200000000008100E800D3
:1028D000811F780086A8B7002C0D020000000000C0
:1028E000CF007800100120000008E600F3FF370059
:1028F000644080006124E10013003A007E68EF002C
:1029000010C0B3007FE8B700E20C02000000000036
:1029100001002000010078000160EF009802020031
:10292000000000008100E800811F780086A8B70041
:102930002C0D020000000000CF00780010012000E4
:102940000008E600F3FF3700744080006224E100D5
:1029500002003A00D610020000000000E5A2A80024
:10296000E7A2AF00010037000E68EF00CF02780049
:10297000000006000FF82300F0FF230020A0B7009E
:102980000000000081E0A8000068EF000168EF008F
:102990000268EF000368EF000468EF000568EF00CD
:1029A0000668EF000768EF0010C0B30008E8B70042
:1029B00010C0B30009E8B70010C0B3000AE8B700C0
:1029C00010C0B3000BE8B70010C0B3000CE8B700AC
:1029D0000D68EF000E68EF001028EF001228EF00DE
:1029E0001428EF001628EF000F68EF001868EF00BA
:1029F0001908A8002CA3EF002AA3EF006CA3EF0096
:102A00006AA3EF003204020000000000D2A2EF002F
:102A1000A5168000C22ADE00050278000440780076
:102A200001E8B700E442A8000000EB00E642AF0076
:102A30000000E80080427800E462A8000000EB009B
:102A4000E662AF000000E8000160EF004100DD0039
:102A50008582FB000B60EF0085024000E4C2A80005
:102A60000000EB00E6C2AF000000E8000160EF00EC
:102A70004200DD0085024000E4E2A8000000EB0017
:102A8000E6E2AF000000E8000160EF004300DD0077
:102A90000540400002E8B700DF82A8000000EB001C
:102AA000E182AF000000E80080427800DFA2A800C9
:102AB0000000EB00E1A2AF000000E8000160EF00C1
:102AC0004100DD008582FB000B60EF0085024000C5
:102AD000E402A8000000EB00E602AF000000E800FE
:102AE0000160EF004200DD0085024000E422A80002
:102AF0000000EB00E622AF000000E8000160EF00FC
:102B00004300DD000540400003E8B7007004020008
:102B1000000000001908A9000000AF001908A80073
:102B20001908AE003300370010C0B3007EE8B700CC
:102B300010050200000000003A070200000000003B
:102B400010C0B3007EE8B700640A02000000000075
:102B500010C0B3007EE8B700500B02000000000078
:102B60007E68EF007F68EF00E20C020000000000CA
:102B700001002000010078000160EF000002020067
:102B8000000000008100E800811F780086A8B700DF
:102B90002C0D020000000000CF007800F0002000A3
:102BA0000008E600F3FF37007E68EF0010C0B300B6
:102BB0007FE8B700E20C02000000000001002000E6
:102BC000010078000160EF001E020200000000001A
:102BD0008100E800811F780086A8B7002C0D020054
:102BE00000000000CF007800F00020000008E600A0
:102BF000F3FF37001908AF00320037007E68EF009E
:102C000010050200000000007E68EF00640A020068
:102C1000000000007E68EF00500B02000000000082
:102C2000DE130200000000000E48E20025003A001A
:102C30007E68EF007F68EF00E20C020000000000F9
:102C400001002000010078000160EF003C0202005A
:102C5000000000008100E800811F780086A8B7000E
:102C60002C0D020000000000CF007800F0002000D2
:102C70000008E600F3FF37007E68EF0010C0B300E5
:102C80007FE8B700E20C0200000000000100200015
:102C9000010078000160EF001E0202000000000049
:102CA0008100E800811F780086A8B7002C0D020083
:102CB00000000000CF007800F00020000008E600CF
:102CC000F3FF370006150400000000000040FE007E
:0200000401F009
:10000000CF0000FFCF0000FF070000FF820000FFCD
:10001000060000FF5F0000FFE70000FFC30000FFD5
:00000001FF
;DSPIC33FJ128MC710
;CRC=AB28  CREATED="05-Aug-25 23:56"
